{
	"tests/homework/TryCatchExample.sol": {
		"TryCatchExample": {
			"abi": [
				{
					"inputs": [],
					"name": "ood",
					"outputs": [
						{
							"internalType": "uint256",
							"name": "sum",
							"type": "uint256"
						}
					],
					"stateMutability": "pure",
					"type": "function"
				}
			],
			"devdoc": {
				"kind": "dev",
				"methods": {},
				"version": 1
			},
			"evm": {
				"assembly": "    /* \"tests/homework/TryCatchExample.sol\":59:310  contract TryCatchExample {... */\n  mstore(0x40, 0x80)\n  callvalue\n  dup1\n  iszero\n  tag_1\n  jumpi\n  0x00\n  dup1\n  revert\ntag_1:\n  pop\n  dataSize(sub_0)\n  dup1\n  dataOffset(sub_0)\n  0x00\n  codecopy\n  0x00\n  return\nstop\n\nsub_0: assembly {\n        /* \"tests/homework/TryCatchExample.sol\":59:310  contract TryCatchExample {... */\n      mstore(0x40, 0x80)\n      callvalue\n      dup1\n      iszero\n      tag_1\n      jumpi\n      0x00\n      dup1\n      revert\n    tag_1:\n      pop\n      jumpi(tag_2, lt(calldatasize, 0x04))\n      shr(0xe0, calldataload(0x00))\n      dup1\n      0xa931f8d0\n      eq\n      tag_3\n      jumpi\n    tag_2:\n      0x00\n      dup1\n      revert\n        /* \"tests/homework/TryCatchExample.sol\":93:291  function ood() public pure returns (uint256 sum){... */\n    tag_3:\n      tag_4\n      tag_5\n      jump\t// in\n    tag_4:\n      mload(0x40)\n      tag_6\n      swap2\n      swap1\n      tag_7\n      jump\t// in\n    tag_6:\n      mload(0x40)\n      dup1\n      swap2\n      sub\n      swap1\n      return\n    tag_5:\n        /* \"tests/homework/TryCatchExample.sol\":129:140  uint256 sum */\n      0x00\n        /* \"tests/homework/TryCatchExample.sol\":153:159  uint i */\n      dup1\n        /* \"tests/homework/TryCatchExample.sol\":162:163  1 */\n      0x01\n        /* \"tests/homework/TryCatchExample.sol\":153:163  uint i = 1 */\n      swap1\n      pop\n        /* \"tests/homework/TryCatchExample.sol\":148:257  for (uint i = 1; i < 101; i++){... */\n    tag_9:\n        /* \"tests/homework/TryCatchExample.sol\":169:172  101 */\n      0x65\n        /* \"tests/homework/TryCatchExample.sol\":165:166  i */\n      dup2\n        /* \"tests/homework/TryCatchExample.sol\":165:172  i < 101 */\n      lt\n        /* \"tests/homework/TryCatchExample.sol\":148:257  for (uint i = 1; i < 101; i++){... */\n      iszero\n      tag_10\n      jumpi\n        /* \"tests/homework/TryCatchExample.sol\":201:202  1 */\n      0x01\n        /* \"tests/homework/TryCatchExample.sol\":198:199  2 */\n      0x02\n        /* \"tests/homework/TryCatchExample.sol\":196:197  i */\n      dup3\n        /* \"tests/homework/TryCatchExample.sol\":196:199  i%2 */\n      tag_12\n      swap2\n      swap1\n      tag_13\n      jump\t// in\n    tag_12:\n        /* \"tests/homework/TryCatchExample.sol\":196:202  i%2==1 */\n      sub\n        /* \"tests/homework/TryCatchExample.sol\":193:250  if(i%2==1){... */\n      tag_14\n      jumpi\n        /* \"tests/homework/TryCatchExample.sol\":231:232  i */\n      dup1\n        /* \"tests/homework/TryCatchExample.sol\":226:229  sum */\n      dup3\n        /* \"tests/homework/TryCatchExample.sol\":226:232  sum +i */\n      tag_15\n      swap2\n      swap1\n      tag_16\n      jump\t// in\n    tag_15:\n        /* \"tests/homework/TryCatchExample.sol\":222:232  sum=sum +i */\n      swap2\n      pop\n        /* \"tests/homework/TryCatchExample.sol\":193:250  if(i%2==1){... */\n    tag_14:\n        /* \"tests/homework/TryCatchExample.sol\":174:177  i++ */\n      dup1\n      dup1\n      0x01\n      add\n      swap2\n      pop\n      pop\n        /* \"tests/homework/TryCatchExample.sol\":148:257  for (uint i = 1; i < 101; i++){... */\n      jump(tag_9)\n    tag_10:\n      pop\n        /* \"tests/homework/TryCatchExample.sol\":93:291  function ood() public pure returns (uint256 sum){... */\n      swap1\n      jump\t// out\n        /* \"#utility.yul\":7:84   */\n    tag_17:\n        /* \"#utility.yul\":44:51   */\n      0x00\n        /* \"#utility.yul\":73:78   */\n      dup2\n        /* \"#utility.yul\":62:78   */\n      swap1\n      pop\n        /* \"#utility.yul\":7:84   */\n      swap2\n      swap1\n      pop\n      jump\t// out\n        /* \"#utility.yul\":90:208   */\n    tag_18:\n        /* \"#utility.yul\":177:201   */\n      tag_24\n        /* \"#utility.yul\":195:200   */\n      dup2\n        /* \"#utility.yul\":177:201   */\n      tag_17\n      jump\t// in\n    tag_24:\n        /* \"#utility.yul\":172:175   */\n      dup3\n        /* \"#utility.yul\":165:202   */\n      mstore\n        /* \"#utility.yul\":90:208   */\n      pop\n      pop\n      jump\t// out\n        /* \"#utility.yul\":214:436   */\n    tag_7:\n        /* \"#utility.yul\":307:311   */\n      0x00\n        /* \"#utility.yul\":345:347   */\n      0x20\n        /* \"#utility.yul\":334:343   */\n      dup3\n        /* \"#utility.yul\":330:348   */\n      add\n        /* \"#utility.yul\":322:348   */\n      swap1\n      pop\n        /* \"#utility.yul\":358:429   */\n      tag_26\n        /* \"#utility.yul\":426:427   */\n      0x00\n        /* \"#utility.yul\":415:424   */\n      dup4\n        /* \"#utility.yul\":411:428   */\n      add\n        /* \"#utility.yul\":402:408   */\n      dup5\n        /* \"#utility.yul\":358:429   */\n      tag_18\n      jump\t// in\n    tag_26:\n        /* \"#utility.yul\":214:436   */\n      swap3\n      swap2\n      pop\n      pop\n      jump\t// out\n        /* \"#utility.yul\":442:622   */\n    tag_19:\n        /* \"#utility.yul\":490:567   */\n      0x4e487b7100000000000000000000000000000000000000000000000000000000\n        /* \"#utility.yul\":487:488   */\n      0x00\n        /* \"#utility.yul\":480:568   */\n      mstore\n        /* \"#utility.yul\":587:591   */\n      0x12\n        /* \"#utility.yul\":584:585   */\n      0x04\n        /* \"#utility.yul\":577:592   */\n      mstore\n        /* \"#utility.yul\":611:615   */\n      0x24\n        /* \"#utility.yul\":608:609   */\n      0x00\n        /* \"#utility.yul\":601:616   */\n      revert\n        /* \"#utility.yul\":628:804   */\n    tag_13:\n        /* \"#utility.yul\":660:661   */\n      0x00\n        /* \"#utility.yul\":677:697   */\n      tag_29\n        /* \"#utility.yul\":695:696   */\n      dup3\n        /* \"#utility.yul\":677:697   */\n      tag_17\n      jump\t// in\n    tag_29:\n        /* \"#utility.yul\":672:697   */\n      swap2\n      pop\n        /* \"#utility.yul\":711:731   */\n      tag_30\n        /* \"#utility.yul\":729:730   */\n      dup4\n        /* \"#utility.yul\":711:731   */\n      tag_17\n      jump\t// in\n    tag_30:\n        /* \"#utility.yul\":706:731   */\n      swap3\n      pop\n        /* \"#utility.yul\":750:751   */\n      dup3\n        /* \"#utility.yul\":740:775   */\n      tag_31\n      jumpi\n        /* \"#utility.yul\":755:773   */\n      tag_32\n      tag_19\n      jump\t// in\n    tag_32:\n        /* \"#utility.yul\":740:775   */\n    tag_31:\n        /* \"#utility.yul\":796:797   */\n      dup3\n        /* \"#utility.yul\":793:794   */\n      dup3\n        /* \"#utility.yul\":789:798   */\n      mod\n        /* \"#utility.yul\":784:798   */\n      swap1\n      pop\n        /* \"#utility.yul\":628:804   */\n      swap3\n      swap2\n      pop\n      pop\n      jump\t// out\n        /* \"#utility.yul\":810:990   */\n    tag_20:\n        /* \"#utility.yul\":858:935   */\n      0x4e487b7100000000000000000000000000000000000000000000000000000000\n        /* \"#utility.yul\":855:856   */\n      0x00\n        /* \"#utility.yul\":848:936   */\n      mstore\n        /* \"#utility.yul\":955:959   */\n      0x11\n        /* \"#utility.yul\":952:953   */\n      0x04\n        /* \"#utility.yul\":945:960   */\n      mstore\n        /* \"#utility.yul\":979:983   */\n      0x24\n        /* \"#utility.yul\":976:977   */\n      0x00\n        /* \"#utility.yul\":969:984   */\n      revert\n        /* \"#utility.yul\":996:1187   */\n    tag_16:\n        /* \"#utility.yul\":1036:1039   */\n      0x00\n        /* \"#utility.yul\":1055:1075   */\n      tag_35\n        /* \"#utility.yul\":1073:1074   */\n      dup3\n        /* \"#utility.yul\":1055:1075   */\n      tag_17\n      jump\t// in\n    tag_35:\n        /* \"#utility.yul\":1050:1075   */\n      swap2\n      pop\n        /* \"#utility.yul\":1089:1109   */\n      tag_36\n        /* \"#utility.yul\":1107:1108   */\n      dup4\n        /* \"#utility.yul\":1089:1109   */\n      tag_17\n      jump\t// in\n    tag_36:\n        /* \"#utility.yul\":1084:1109   */\n      swap3\n      pop\n        /* \"#utility.yul\":1132:1133   */\n      dup3\n        /* \"#utility.yul\":1129:1130   */\n      dup3\n        /* \"#utility.yul\":1125:1134   */\n      add\n        /* \"#utility.yul\":1118:1134   */\n      swap1\n      pop\n        /* \"#utility.yul\":1153:1156   */\n      dup1\n        /* \"#utility.yul\":1150:1151   */\n      dup3\n        /* \"#utility.yul\":1147:1157   */\n      gt\n        /* \"#utility.yul\":1144:1180   */\n      iszero\n      tag_37\n      jumpi\n        /* \"#utility.yul\":1160:1178   */\n      tag_38\n      tag_20\n      jump\t// in\n    tag_38:\n        /* \"#utility.yul\":1144:1180   */\n    tag_37:\n        /* \"#utility.yul\":996:1187   */\n      swap3\n      swap2\n      pop\n      pop\n      jump\t// out\n\n    auxdata: 0xa2646970667358221220d01231228718302fe9cf3beaf2e300a9c032b79acd8c9be932f597408bfc5ca364736f6c634300081a0033\n}\n",
				"bytecode": {
					"linkReferences": {},
					"object": "6080604052348015600e575f80fd5b506101b38061001c5f395ff3fe608060405234801561000f575f80fd5b5060043610610029575f3560e01c8063a931f8d01461002d575b5f80fd5b61003561004b565b60405161004291906100a7565b60405180910390f35b5f80600190505b606581101561008b57600160028261006a91906100ed565b0361007e57808261007b919061014a565b91505b8080600101915050610052565b5090565b5f819050919050565b6100a18161008f565b82525050565b5f6020820190506100ba5f830184610098565b92915050565b7f4e487b71000000000000000000000000000000000000000000000000000000005f52601260045260245ffd5b5f6100f78261008f565b91506101028361008f565b925082610112576101116100c0565b5b828206905092915050565b7f4e487b71000000000000000000000000000000000000000000000000000000005f52601160045260245ffd5b5f6101548261008f565b915061015f8361008f565b92508282019050808211156101775761017661011d565b5b9291505056fea2646970667358221220d01231228718302fe9cf3beaf2e300a9c032b79acd8c9be932f597408bfc5ca364736f6c634300081a0033",
					"opcodes": "PUSH1 0x80 PUSH1 0x40 MSTORE CALLVALUE DUP1 ISZERO PUSH1 0xE JUMPI PUSH0 DUP1 REVERT JUMPDEST POP PUSH2 0x1B3 DUP1 PUSH2 0x1C PUSH0 CODECOPY PUSH0 RETURN INVALID PUSH1 0x80 PUSH1 0x40 MSTORE CALLVALUE DUP1 ISZERO PUSH2 0xF JUMPI PUSH0 DUP1 REVERT JUMPDEST POP PUSH1 0x4 CALLDATASIZE LT PUSH2 0x29 JUMPI PUSH0 CALLDATALOAD PUSH1 0xE0 SHR DUP1 PUSH4 0xA931F8D0 EQ PUSH2 0x2D JUMPI JUMPDEST PUSH0 DUP1 REVERT JUMPDEST PUSH2 0x35 PUSH2 0x4B JUMP JUMPDEST PUSH1 0x40 MLOAD PUSH2 0x42 SWAP2 SWAP1 PUSH2 0xA7 JUMP JUMPDEST PUSH1 0x40 MLOAD DUP1 SWAP2 SUB SWAP1 RETURN JUMPDEST PUSH0 DUP1 PUSH1 0x1 SWAP1 POP JUMPDEST PUSH1 0x65 DUP2 LT ISZERO PUSH2 0x8B JUMPI PUSH1 0x1 PUSH1 0x2 DUP3 PUSH2 0x6A SWAP2 SWAP1 PUSH2 0xED JUMP JUMPDEST SUB PUSH2 0x7E JUMPI DUP1 DUP3 PUSH2 0x7B SWAP2 SWAP1 PUSH2 0x14A JUMP JUMPDEST SWAP2 POP JUMPDEST DUP1 DUP1 PUSH1 0x1 ADD SWAP2 POP POP PUSH2 0x52 JUMP JUMPDEST POP SWAP1 JUMP JUMPDEST PUSH0 DUP2 SWAP1 POP SWAP2 SWAP1 POP JUMP JUMPDEST PUSH2 0xA1 DUP2 PUSH2 0x8F JUMP JUMPDEST DUP3 MSTORE POP POP JUMP JUMPDEST PUSH0 PUSH1 0x20 DUP3 ADD SWAP1 POP PUSH2 0xBA PUSH0 DUP4 ADD DUP5 PUSH2 0x98 JUMP JUMPDEST SWAP3 SWAP2 POP POP JUMP JUMPDEST PUSH32 0x4E487B7100000000000000000000000000000000000000000000000000000000 PUSH0 MSTORE PUSH1 0x12 PUSH1 0x4 MSTORE PUSH1 0x24 PUSH0 REVERT JUMPDEST PUSH0 PUSH2 0xF7 DUP3 PUSH2 0x8F JUMP JUMPDEST SWAP2 POP PUSH2 0x102 DUP4 PUSH2 0x8F JUMP JUMPDEST SWAP3 POP DUP3 PUSH2 0x112 JUMPI PUSH2 0x111 PUSH2 0xC0 JUMP JUMPDEST JUMPDEST DUP3 DUP3 MOD SWAP1 POP SWAP3 SWAP2 POP POP JUMP JUMPDEST PUSH32 0x4E487B7100000000000000000000000000000000000000000000000000000000 PUSH0 MSTORE PUSH1 0x11 PUSH1 0x4 MSTORE PUSH1 0x24 PUSH0 REVERT JUMPDEST PUSH0 PUSH2 0x154 DUP3 PUSH2 0x8F JUMP JUMPDEST SWAP2 POP PUSH2 0x15F DUP4 PUSH2 0x8F JUMP JUMPDEST SWAP3 POP DUP3 DUP3 ADD SWAP1 POP DUP1 DUP3 GT ISZERO PUSH2 0x177 JUMPI PUSH2 0x176 PUSH2 0x11D JUMP JUMPDEST JUMPDEST SWAP3 SWAP2 POP POP JUMP INVALID LOG2 PUSH5 0x6970667358 0x22 SLT KECCAK256 0xD0 SLT BALANCE 0x22 DUP8 XOR ADDRESS 0x2F 0xE9 0xCF EXTCODESIZE 0xEA CALLCODE 0xE3 STOP 0xA9 0xC0 ORIGIN 0xB7 SWAP11 0xCD DUP13 SWAP12 0xE9 ORIGIN CREATE2 SWAP8 BLOCKHASH DUP12 0xFC TLOAD LOG3 PUSH5 0x736F6C6343 STOP ADDMOD BYTE STOP CALLER "
				},
				"gasEstimates": {
					"creation": {
						"codeDepositCost": "87000",
						"executionCost": "133",
						"totalCost": "87133"
					},
					"external": {
						"ood()": "infinite"
					}
				},
				"methodIdentifiers": {
					"ood()": "a931f8d0"
				}
			},
			"storageLayout": {
				"storage": [],
				"types": null
			},
			"userdoc": {
				"kind": "user",
				"methods": {},
				"version": 1
			}
		}
	}
}