{
	"data": {
		"bytecode": {
			"linkReferences": {},
			"object": "6080604052348015600e575f80fd5b5060ad80601a5f395ff3fe6080604052348015600e575f80fd5b50600436106026575f3560e01c806335b09a6e14602a575b5f80fd5b60306044565b604051603b91906060565b60405180910390f35b5f90565b5f8115159050919050565b605a816048565b82525050565b5f60208201905060715f8301846053565b9291505056fea26469706673582212202b10e0ff2021328f565bd07406025731566771e44691cfadf1268145b97b9e7264736f6c634300081a0033",
			"opcodes": "PUSH1 0x80 PUSH1 0x40 MSTORE CALLVALUE DUP1 ISZERO PUSH1 0xE JUMPI PUSH0 DUP1 REVERT JUMPDEST POP PUSH1 0xAD DUP1 PUSH1 0x1A PUSH0 CODECOPY PUSH0 RETURN INVALID PUSH1 0x80 PUSH1 0x40 MSTORE CALLVALUE DUP1 ISZERO PUSH1 0xE JUMPI PUSH0 DUP1 REVERT JUMPDEST POP PUSH1 0x4 CALLDATASIZE LT PUSH1 0x26 JUMPI PUSH0 CALLDATALOAD PUSH1 0xE0 SHR DUP1 PUSH4 0x35B09A6E EQ PUSH1 0x2A JUMPI JUMPDEST PUSH0 DUP1 REVERT JUMPDEST PUSH1 0x30 PUSH1 0x44 JUMP JUMPDEST PUSH1 0x40 MLOAD PUSH1 0x3B SWAP2 SWAP1 PUSH1 0x60 JUMP JUMPDEST PUSH1 0x40 MLOAD DUP1 SWAP2 SUB SWAP1 RETURN JUMPDEST PUSH0 SWAP1 JUMP JUMPDEST PUSH0 DUP2 ISZERO ISZERO SWAP1 POP SWAP2 SWAP1 POP JUMP JUMPDEST PUSH1 0x5A DUP2 PUSH1 0x48 JUMP JUMPDEST DUP3 MSTORE POP POP JUMP JUMPDEST PUSH0 PUSH1 0x20 DUP3 ADD SWAP1 POP PUSH1 0x71 PUSH0 DUP4 ADD DUP5 PUSH1 0x53 JUMP JUMPDEST SWAP3 SWAP2 POP POP JUMP INVALID LOG2 PUSH5 0x6970667358 0x22 SLT KECCAK256 0x2B LT 0xE0 SELFDESTRUCT KECCAK256 0x21 ORIGIN DUP16 JUMP JUMPDEST 0xD0 PUSH21 0x6025731566771E44691CFADF1268145B97B9E7264 PUSH20 0x6F6C634300081A00330000000000000000000000 "
		},
		"gasEstimates": {
			"creation": {
				"codeDepositCost": "34600",
				"executionCost": "85",
				"totalCost": "34685"
			},
			"external": {
				"someFunction()": "308"
			}
		},
		"methodIdentifiers": {
			"someFunction()": "35b09a6e"
		}
	},
	"abi": [
		{
			"inputs": [],
			"name": "someFunction",
			"outputs": [
				{
					"internalType": "bool",
					"name": "",
					"type": "bool"
				}
			],
			"stateMutability": "nonpayable",
			"type": "function"
		}
	]
}