{
	"data": {
		"bytecode": {
			"linkReferences": {},
			"object": "6080604052604051600e906074565b604051809103905ff0801580156026573d5f803e3d5ffd5b505f806101000a81548173ffffffffffffffffffffffffffffffffffffffff021916908373ffffffffffffffffffffffffffffffffffffffff160217905550348015606f575f80fd5b506081565b6101cf8061031e83390190565b6102908061008e5f395ff3fe608060405234801561000f575f80fd5b5060043610610029575f3560e01c80638466c3e61461002d575b5f80fd5b61003561004b565b60405161004291906101d8565b60405180910390f35b60605f60405180602001604052805f81525090505f8054906101000a900473ffffffffffffffffffffffffffffffffffffffff1673ffffffffffffffffffffffffffffffffffffffff1663a931f8d06040518163ffffffff1660e01b8152600401602060405180830381865afa9250505080156100e657506040513d601f19601f820116820180604052508101906100e3919061022f565b60015b610127576040518060400160405280600581526020017f6572726f720000000000000000000000000000000000000000000000000000008152509050610161565b6040518060400160405280600781526020017f73756363657373000000000000000000000000000000000000000000000000008152509150505b8091505090565b5f81519050919050565b5f82825260208201905092915050565b8281835e5f83830152505050565b5f601f19601f8301169050919050565b5f6101aa82610168565b6101b48185610172565b93506101c4818560208601610182565b6101cd81610190565b840191505092915050565b5f6020820190508181035f8301526101f081846101a0565b905092915050565b5f80fd5b5f819050919050565b61020e816101fc565b8114610218575f80fd5b50565b5f8151905061022981610205565b92915050565b5f60208284031215610244576102436101f8565b5b5f6102518482850161021b565b9150509291505056fea26469706673582212204df94ffb0f35c324beae39a6336c591d574fd12fe979f34010d6a93d3c4e880a64736f6c634300081a00336080604052348015600e575f80fd5b506101b38061001c5f395ff3fe608060405234801561000f575f80fd5b5060043610610029575f3560e01c8063a931f8d01461002d575b5f80fd5b61003561004b565b60405161004291906100a7565b60405180910390f35b5f80600190505b606581101561008b57600160028261006a91906100ed565b0361007e57808261007b919061014a565b91505b8080600101915050610052565b5090565b5f819050919050565b6100a18161008f565b82525050565b5f6020820190506100ba5f830184610098565b92915050565b7f4e487b71000000000000000000000000000000000000000000000000000000005f52601260045260245ffd5b5f6100f78261008f565b91506101028361008f565b925082610112576101116100c0565b5b828206905092915050565b7f4e487b71000000000000000000000000000000000000000000000000000000005f52601160045260245ffd5b5f6101548261008f565b915061015f8361008f565b92508282019050808211156101775761017661011d565b5b9291505056fea2646970667358221220d01231228718302fe9cf3beaf2e300a9c032b79acd8c9be932f597408bfc5ca364736f6c634300081a0033",
			"opcodes": "PUSH1 0x80 PUSH1 0x40 MSTORE PUSH1 0x40 MLOAD PUSH1 0xE SWAP1 PUSH1 0x74 JUMP JUMPDEST PUSH1 0x40 MLOAD DUP1 SWAP2 SUB SWAP1 PUSH0 CREATE DUP1 ISZERO DUP1 ISZERO PUSH1 0x26 JUMPI RETURNDATASIZE PUSH0 DUP1 RETURNDATACOPY RETURNDATASIZE PUSH0 REVERT JUMPDEST POP PUSH0 DUP1 PUSH2 0x100 EXP DUP2 SLOAD DUP2 PUSH20 0xFFFFFFFFFFFFFFFFFFFFFFFFFFFFFFFFFFFFFFFF MUL NOT AND SWAP1 DUP4 PUSH20 0xFFFFFFFFFFFFFFFFFFFFFFFFFFFFFFFFFFFFFFFF AND MUL OR SWAP1 SSTORE POP CALLVALUE DUP1 ISZERO PUSH1 0x6F JUMPI PUSH0 DUP1 REVERT JUMPDEST POP PUSH1 0x81 JUMP JUMPDEST PUSH2 0x1CF DUP1 PUSH2 0x31E DUP4 CODECOPY ADD SWAP1 JUMP JUMPDEST PUSH2 0x290 DUP1 PUSH2 0x8E PUSH0 CODECOPY PUSH0 RETURN INVALID PUSH1 0x80 PUSH1 0x40 MSTORE CALLVALUE DUP1 ISZERO PUSH2 0xF JUMPI PUSH0 DUP1 REVERT JUMPDEST POP PUSH1 0x4 CALLDATASIZE LT PUSH2 0x29 JUMPI PUSH0 CALLDATALOAD PUSH1 0xE0 SHR DUP1 PUSH4 0x8466C3E6 EQ PUSH2 0x2D JUMPI JUMPDEST PUSH0 DUP1 REVERT JUMPDEST PUSH2 0x35 PUSH2 0x4B JUMP JUMPDEST PUSH1 0x40 MLOAD PUSH2 0x42 SWAP2 SWAP1 PUSH2 0x1D8 JUMP JUMPDEST PUSH1 0x40 MLOAD DUP1 SWAP2 SUB SWAP1 RETURN JUMPDEST PUSH1 0x60 PUSH0 PUSH1 0x40 MLOAD DUP1 PUSH1 0x20 ADD PUSH1 0x40 MSTORE DUP1 PUSH0 DUP2 MSTORE POP SWAP1 POP PUSH0 DUP1 SLOAD SWAP1 PUSH2 0x100 EXP SWAP1 DIV PUSH20 0xFFFFFFFFFFFFFFFFFFFFFFFFFFFFFFFFFFFFFFFF AND PUSH20 0xFFFFFFFFFFFFFFFFFFFFFFFFFFFFFFFFFFFFFFFF AND PUSH4 0xA931F8D0 PUSH1 0x40 MLOAD DUP2 PUSH4 0xFFFFFFFF AND PUSH1 0xE0 SHL DUP2 MSTORE PUSH1 0x4 ADD PUSH1 0x20 PUSH1 0x40 MLOAD DUP1 DUP4 SUB DUP2 DUP7 GAS STATICCALL SWAP3 POP POP POP DUP1 ISZERO PUSH2 0xE6 JUMPI POP PUSH1 0x40 MLOAD RETURNDATASIZE PUSH1 0x1F NOT PUSH1 0x1F DUP3 ADD AND DUP3 ADD DUP1 PUSH1 0x40 MSTORE POP DUP2 ADD SWAP1 PUSH2 0xE3 SWAP2 SWAP1 PUSH2 0x22F JUMP JUMPDEST PUSH1 0x1 JUMPDEST PUSH2 0x127 JUMPI PUSH1 0x40 MLOAD DUP1 PUSH1 0x40 ADD PUSH1 0x40 MSTORE DUP1 PUSH1 0x5 DUP2 MSTORE PUSH1 0x20 ADD PUSH32 0x6572726F72000000000000000000000000000000000000000000000000000000 DUP2 MSTORE POP SWAP1 POP PUSH2 0x161 JUMP JUMPDEST PUSH1 0x40 MLOAD DUP1 PUSH1 0x40 ADD PUSH1 0x40 MSTORE DUP1 PUSH1 0x7 DUP2 MSTORE PUSH1 0x20 ADD PUSH32 0x7375636365737300000000000000000000000000000000000000000000000000 DUP2 MSTORE POP SWAP2 POP POP JUMPDEST DUP1 SWAP2 POP POP SWAP1 JUMP JUMPDEST PUSH0 DUP2 MLOAD SWAP1 POP SWAP2 SWAP1 POP JUMP JUMPDEST PUSH0 DUP3 DUP3 MSTORE PUSH1 0x20 DUP3 ADD SWAP1 POP SWAP3 SWAP2 POP POP JUMP JUMPDEST DUP3 DUP2 DUP4 MCOPY PUSH0 DUP4 DUP4 ADD MSTORE POP POP POP JUMP JUMPDEST PUSH0 PUSH1 0x1F NOT PUSH1 0x1F DUP4 ADD AND SWAP1 POP SWAP2 SWAP1 POP JUMP JUMPDEST PUSH0 PUSH2 0x1AA DUP3 PUSH2 0x168 JUMP JUMPDEST PUSH2 0x1B4 DUP2 DUP6 PUSH2 0x172 JUMP JUMPDEST SWAP4 POP PUSH2 0x1C4 DUP2 DUP6 PUSH1 0x20 DUP7 ADD PUSH2 0x182 JUMP JUMPDEST PUSH2 0x1CD DUP2 PUSH2 0x190 JUMP JUMPDEST DUP5 ADD SWAP2 POP POP SWAP3 SWAP2 POP POP JUMP JUMPDEST PUSH0 PUSH1 0x20 DUP3 ADD SWAP1 POP DUP2 DUP2 SUB PUSH0 DUP4 ADD MSTORE PUSH2 0x1F0 DUP2 DUP5 PUSH2 0x1A0 JUMP JUMPDEST SWAP1 POP SWAP3 SWAP2 POP POP JUMP JUMPDEST PUSH0 DUP1 REVERT JUMPDEST PUSH0 DUP2 SWAP1 POP SWAP2 SWAP1 POP JUMP JUMPDEST PUSH2 0x20E DUP2 PUSH2 0x1FC JUMP JUMPDEST DUP2 EQ PUSH2 0x218 JUMPI PUSH0 DUP1 REVERT JUMPDEST POP JUMP JUMPDEST PUSH0 DUP2 MLOAD SWAP1 POP PUSH2 0x229 DUP2 PUSH2 0x205 JUMP JUMPDEST SWAP3 SWAP2 POP POP JUMP JUMPDEST PUSH0 PUSH1 0x20 DUP3 DUP5 SUB SLT ISZERO PUSH2 0x244 JUMPI PUSH2 0x243 PUSH2 0x1F8 JUMP JUMPDEST JUMPDEST PUSH0 PUSH2 0x251 DUP5 DUP3 DUP6 ADD PUSH2 0x21B JUMP JUMPDEST SWAP2 POP POP SWAP3 SWAP2 POP POP JUMP INVALID LOG2 PUSH5 0x6970667358 0x22 SLT KECCAK256 0x4D 0xF9 0x4F 0xFB 0xF CALLDATALOAD 0xC3 0x24 0xBE 0xAE CODECOPY 0xA6 CALLER PUSH13 0x591D574FD12FE979F34010D6A9 RETURNDATASIZE EXTCODECOPY 0x4E DUP9 EXP PUSH5 0x736F6C6343 STOP ADDMOD BYTE STOP CALLER PUSH1 0x80 PUSH1 0x40 MSTORE CALLVALUE DUP1 ISZERO PUSH1 0xE JUMPI PUSH0 DUP1 REVERT JUMPDEST POP PUSH2 0x1B3 DUP1 PUSH2 0x1C PUSH0 CODECOPY PUSH0 RETURN INVALID PUSH1 0x80 PUSH1 0x40 MSTORE CALLVALUE DUP1 ISZERO PUSH2 0xF JUMPI PUSH0 DUP1 REVERT JUMPDEST POP PUSH1 0x4 CALLDATASIZE LT PUSH2 0x29 JUMPI PUSH0 CALLDATALOAD PUSH1 0xE0 SHR DUP1 PUSH4 0xA931F8D0 EQ PUSH2 0x2D JUMPI JUMPDEST PUSH0 DUP1 REVERT JUMPDEST PUSH2 0x35 PUSH2 0x4B JUMP JUMPDEST PUSH1 0x40 MLOAD PUSH2 0x42 SWAP2 SWAP1 PUSH2 0xA7 JUMP JUMPDEST PUSH1 0x40 MLOAD DUP1 SWAP2 SUB SWAP1 RETURN JUMPDEST PUSH0 DUP1 PUSH1 0x1 SWAP1 POP JUMPDEST PUSH1 0x65 DUP2 LT ISZERO PUSH2 0x8B JUMPI PUSH1 0x1 PUSH1 0x2 DUP3 PUSH2 0x6A SWAP2 SWAP1 PUSH2 0xED JUMP JUMPDEST SUB PUSH2 0x7E JUMPI DUP1 DUP3 PUSH2 0x7B SWAP2 SWAP1 PUSH2 0x14A JUMP JUMPDEST SWAP2 POP JUMPDEST DUP1 DUP1 PUSH1 0x1 ADD SWAP2 POP POP PUSH2 0x52 JUMP JUMPDEST POP SWAP1 JUMP JUMPDEST PUSH0 DUP2 SWAP1 POP SWAP2 SWAP1 POP JUMP JUMPDEST PUSH2 0xA1 DUP2 PUSH2 0x8F JUMP JUMPDEST DUP3 MSTORE POP POP JUMP JUMPDEST PUSH0 PUSH1 0x20 DUP3 ADD SWAP1 POP PUSH2 0xBA PUSH0 DUP4 ADD DUP5 PUSH2 0x98 JUMP JUMPDEST SWAP3 SWAP2 POP POP JUMP JUMPDEST PUSH32 0x4E487B7100000000000000000000000000000000000000000000000000000000 PUSH0 MSTORE PUSH1 0x12 PUSH1 0x4 MSTORE PUSH1 0x24 PUSH0 REVERT JUMPDEST PUSH0 PUSH2 0xF7 DUP3 PUSH2 0x8F JUMP JUMPDEST SWAP2 POP PUSH2 0x102 DUP4 PUSH2 0x8F JUMP JUMPDEST SWAP3 POP DUP3 PUSH2 0x112 JUMPI PUSH2 0x111 PUSH2 0xC0 JUMP JUMPDEST JUMPDEST DUP3 DUP3 MOD SWAP1 POP SWAP3 SWAP2 POP POP JUMP JUMPDEST PUSH32 0x4E487B7100000000000000000000000000000000000000000000000000000000 PUSH0 MSTORE PUSH1 0x11 PUSH1 0x4 MSTORE PUSH1 0x24 PUSH0 REVERT JUMPDEST PUSH0 PUSH2 0x154 DUP3 PUSH2 0x8F JUMP JUMPDEST SWAP2 POP PUSH2 0x15F DUP4 PUSH2 0x8F JUMP JUMPDEST SWAP3 POP DUP3 DUP3 ADD SWAP1 POP DUP1 DUP3 GT ISZERO PUSH2 0x177 JUMPI PUSH2 0x176 PUSH2 0x11D JUMP JUMPDEST JUMPDEST SWAP3 SWAP2 POP POP JUMP INVALID LOG2 PUSH5 0x6970667358 0x22 SLT KECCAK256 0xD0 SLT BALANCE 0x22 DUP8 XOR ADDRESS 0x2F 0xE9 0xCF EXTCODESIZE 0xEA CALLCODE 0xE3 STOP 0xA9 0xC0 ORIGIN 0xB7 SWAP11 0xCD DUP13 SWAP12 0xE9 ORIGIN CREATE2 SWAP8 BLOCKHASH DUP12 0xFC TLOAD LOG3 PUSH5 0x736F6C6343 STOP ADDMOD BYTE STOP CALLER "
		},
		"gasEstimates": {
			"creation": {
				"codeDepositCost": "131200",
				"executionCost": "infinite",
				"totalCost": "infinite"
			},
			"external": {
				"aa()": "infinite"
			}
		},
		"methodIdentifiers": {
			"aa()": "8466c3e6"
		}
	},
	"abi": [
		{
			"inputs": [],
			"name": "aa",
			"outputs": [
				{
					"internalType": "string",
					"name": "",
					"type": "string"
				}
			],
			"stateMutability": "view",
			"type": "function"
		}
	]
}